:020000040800F2
:1000000000200020190100086901000869010008AA
:1000100000000000000000000000000000000000E0
:10002000000000000000000000000000690100085E
:1000300000000000000000006901000869010008DC
:1000400069010008690100086901000869010008E8
:10005000690100080D0C0008690100086901000829
:1000600069010008690100086901000869010008C8
:1000700069010008690100086901000869010008B8
:1000800069010008690100086901000869010008A8
:100090006901000869010008690100086901000898
:1000A000690100086901000869010008CD0B00081A
:1000B0006901000869010008690100086901000878
:1000C00010B5064C2378002B07D1054B002B02D02E
:1000D000044800E000BF0123237010BD640000202D
:1000E00000000000DC0D0008044B10B5002B03D00D
:1000F0000349044800E000BF10BDC04600000000F6
:1001000068000020DC0D00080023C25C0133002AD7
:10011000FBD1581E704700000D48854600E000BF27
:100120000C480D490D4A002302E0D458C450043352
:10013000C4188C42F9D30A4A0A4C002301E0136028
:100140000432A242FBD300F091FD00F067FCFEE711
:10015000002000200000002064000020FC0D0008AA
:100160006400002004010020FEE7000080B586B096
:1001700000AF7860584B7B617B699B698022D2011C
:100180001A437B699A61102000F094FD03003B61E3
:100190003B6910220021180000F096FD3B69902277
:1001A000D2051A603B6909221A713B6902225A7111
:1001B0003B6901225A723B69180000F0E5F91020F2
:1001C00000F078FD0300FB60FB681022002118009E
:1001D00000F07AFDFB689022D2051A60FB680A22C3
:1001E0001A71FB6802225A71FB6801225A72FB687D
:1001F000180000F0C9F97B681B681A687B681B68E7
:1002000001218A431A607B681B681A687B681B6837
:1002100032490A401A607B681B681A687B689B7BBE
:100220001B0319007B681B680A431A607B681B6804
:100230001A687B681B682A490A401A607B681B6839
:100240001A687B685B7B9B0219007B681B680A430A
:100250001A607B681B685A687B681B6821490A40E2
:100260005A607B681B685A687B681B7B1B031900FC
:100270007B681B680A435A607B681B681A687B6846
:100280001B6819490A401A607B681B681A687B68FA
:10029000DB7BDB0319007B681B680A431A607B6801
:1002A0009B689AB27B681B68DA607B681B681A6877
:1002B0007B681B6801210A431A607B681B681A6807
:1002C0007B681B7919007B681B680A431A60C0466B
:1002D000BD4606B080BDC04600100240FFEFFFEFF4
:1002E000FFFBFFFFFFCFFFFFFF7FFFFF80B582B067
:1002F00000AF786039601CE03B681B68DB698022D6
:10030000134007D07B681A783B681B689A627B6849
:1003100001337B60C0463B681B68DB6940221340A9
:10032000F9D03B681B681A6A3B681B6840210A4386
:100330001A627B681B78002BDED1C046BD4602B036
:1003400080BD000080B582B000AF78607B681B681C
:100350001A687B681B6820210A431A60074B1A68D9
:100360007B685B7C190001238B401900034B0A4317
:100370001A60C046BD4602B080BDC04600E100E044
:1003800080B584B000AF0200FB1D1A70234BFB60E8
:10039000FB681B6801221A43FB681A60C046FB68B1
:1003A0001B6802221340FAD0FB681B681C4A1A40E3
:1003B000FB681A60FB685B681A4A1A40FB685A605F
:1003C000FB685B68FA1D127892041A43FB685A6056
:1003D000FB681B68802252041A43FB681A60C046FF
:1003E000FB681A6880239B041340F9D0FB685B68A4
:1003F000032293431A00FB685A60FB685B68022281
:100400001A43FB685A60C046FB685B680C221340C5
:10041000082BF9D1C046BD4604B080BD0010024093
:10042000FFFFFFFEFFFFC3FF80B584B000AF786021
:100430000A00FB1C1A704E4BFB60FB1C1B78002B48
:1004400049D07B681A689023DB059A4206D1FB6885
:100450005B69802292021A43FB685A617B681B68C1
:10046000444A934206D1FB685B698022D2021A4358
:10047000FB685A617B681B683F4A934206D1FB6860
:100480005B69802212031A43FB685A617B681B6810
:100490003A4A934206D1FB685B69802252031A43B1
:1004A000FB685A617B681B68354A934206D1FB683A
:1004B0005B69802292031A43FB685A617B681B6860
:1004C000304A934250D1FB685B698022D2031A43C1
:1004D000FB685A6148E07B681A689023DB059A4202
:1004E00006D1FB689B6A802292021A43FB689A62DB
:1004F0007B681B681F4A934206D1FB689B6A802277
:10050000D2021A43FB689A627B681B681A4A9342BC
:1005100006D1FB689B6A802212031A43FB689A6229
:100520007B681B68154A934206D1FB689B6A802250
:1005300052031A43FB689A627B681B68104A934215
:1005400006D1FB689B6A802292031A43FB689A6279
:100550007B681B680B4A934206D1FB689B6A80222A
:10056000D2031A43FB689A62C046BD4604B080BD00
:10057000001002400004004800080048000C004839
:10058000001000480014004890B585B000AF7860B6
:100590007B6801211800FFF747FF7B685B79042B1C
:1005A00000D199E07B681B681A687B681B795B0047
:1005B000032199400B00DB4319007B681B680A404C
:1005C0001A607B681B681A687B685B7919007B6816
:1005D0001B795B0099400B0019007B681B680A437C
:1005E0001A607B685B79012B35D17B681B689A6840
:1005F0007B681B795B00032199400B00DB431900EA
:100600007B681B680A409A607B681B689A687B68F5
:100610001B795B00032199400B0019007B681B6864
:100620000A439A607B681A687B681B6852685A6044
:100630007B681A687B681B6852685A607B681A6816
:100640007B681B68D268DA607B681A687B681B6805
:10065000D268DA6063E17B685B79022B00D05EE1EF
:100660007B681B687A681279D208D0B2020008321F
:100670009200D2587B681B79190007230B409B001E
:100680000F2199400B00DB4319007B681B68114068
:10069000020008329200D1507B681B687A68127998
:1006A000D208D1B20A0008329200D2587B685B7A35
:1006B00018007B681B791C00072323409B0098408F
:1006C00003001C007B681B68080022431100020025
:1006D00008329200D15022E1934BFB60934BBB60F8
:1006E000FB681B687A681279110001228A401A435C
:1006F000FB681A607B681B799B08D8B20200BB6854
:1007000002329200D3587A681279110003220A400B
:1007100092000F2191400A00D243110002001940BB
:10072000BB6802329200D1507B681A689023DB05C7
:100730009A420ED17B681B799B08DBB21A00180025
:10074000BB6802329200D158BB68821C9200D15023
:1007500099E07B681B68764A934219D17B681B79C4
:100760009B08D8B20200BB6802329200D3587A6864
:100770001279110003220A409200012191400A00DF
:10078000110002001943BB6802329200D1507AE096
:100790007B681B68674A934219D17B681B799B0869
:1007A000D8B20200BB6802329200D3587A6812793C
:1007B000110003220A409200022191400A00110018
:1007C00002001943BB6802329200D1505BE07B68A3
:1007D0001B68594A934219D17B681B799B08D8B290
:1007E0000200BB6802329200D3587A681279110075
:1007F00003220A409200032191400A0011000200E6
:100800001943BB6802329200D1503CE07B681B6800
:100810004A4A934219D17B681B799B08D8B20200DF
:10082000BB6802329200D3587A6812791100032211
:100830000A409200042191400A001100020019436D
:10084000BB6802329200D1501DE07B681B683C4AB5
:10085000934218D17B681B799B08D8B20200BB6811
:1008600002329200D3587A681279110003220A40AA
:100870009200052191400A00110002001943BB6853
:1008800002329200D1507B685B7B002B15D1FB6854
:10089000DB687A681279110001228A401A43FB68EA
:1008A000DA60FB689B687A681279110001228A403D
:1008B000D2431A40FB689A6031E07B685B7B012B76
:1008C00015D1FB689B687A681279110001228A4071
:1008D0001A43FB689A60FB68DB687A6852791100FA
:1008E00001228A40D2431A40FB68DA6017E07B6835
:1008F0005B7B022B13D1FB68DB687A6812791100ED
:1009000001228A401A43FB68DA60FB689B687A68B8
:100910001279110001228A401A43FB689A60C0468E
:10092000BD4605B090BDC046000401400000014036
:100930000004004800080048000C0048001000486F
:100940000014004880B582B000AF78607B681B68F7
:100950005A697B681B79190001238B4019007B6859
:100960001B684A405A61C046BD4602B080BD0000C7
:1009700090B583B000AF78607B681B7B002B45D0BF
:100980007B689B7A9B08D8B203009B00214A94465F
:1009900063441A687B689B7A190003230B40DB00D1
:1009A0000433FF2199400B00DB43190003009B0037
:1009B0001848844663440A401A607B689B7A9B0807
:1009C000D9B20B009B00134A944663441A687B68B3
:1009D000DB7A18007B689B7A1C0003232340DB0032
:1009E00004339840030018000B009B0009498C4613
:1009F000634402431A60084B1A687B689B7A1900AB
:100A000001238B401900044B0A431A60C046BD46BF
:100A100003B090BD00E400E000E100E080B500AF6D
:100A20000220FFF7ADFC614B64220021180000F0AA
:100A30004BF9102000F03EF903001A005C4B1A60DD
:100A40005B4B1B6810220021180000F03DF9584B49
:100A50001B68584A1A60564B1B6809221A71544B7E
:100A60001B6801225A71524B1B6803229A71504B2A
:100A70001B6800221A724E4B1B681800FFF784FD9A
:100A8000102000F017F903001A004B4B1A604A4B74
:100A90001B6810220021180000F016F9464B1B6855
:100AA000444A1A60444B1B6808221A71424B1B6867
:100AB00001225A71404B1B6803229A713E4B1B68FE
:100AC00000221A723C4B1B681800FFF75DFD1020D6
:100AD00000F0F0F803001A00384B1A60374B1B681F
:100AE00010220021180000F0EFF8344B1B68902210
:100AF000D2051A60314B1B6800221A712F4B1B68FC
:100B000004225A712D4B1B6800225A732B4B1B6811
:100B100001221A73294B1B6805229A72274B1B6806
:100B20000A22DA72254B1B681800FFF72DFD234BB4
:100B30001B681800FFF71CFF142000F0BBF803002F
:100B40001A001F4B1A601E4B1B681422002118004C
:100B500000F0BAF81A4B1B681A4A1A60184B1B6847
:100B60000C221A71164B1B680022DA73144B1B6897
:100B7000154A9A60124B1B6800225A73104B1B686F
:100B800000229A730E4B1B6800221A730C4B1B68D1
:100B90001B225A740A4B1B681800FFF7E7FA084B30
:100BA0001B681800FFF7CEFBFEE7C0468C00002054
:100BB000F400002000080048F8000020F0000020A9
:100BC000FC0000200038014082060000B0B500AFF4
:100BD0000C4B1B681B685C6A0B4B1800FFF794FA00
:100BE0000200E1B2084B9954064B1B681B689A69D6
:100BF000044B1B681B6808210A439A61C046BD4626
:100C0000B0BDC046FC0000208C00002080B582B042
:100C100000AF00237B6002E07B6801337B607B6870
:100C20000D4A9342F8DD0D4B3B603B685B69012246
:100C30001A433B685A610A4B1A680A4B11001800A4
:100C4000FFF754FB084B1B681800FFF77BFEC046FC
:100C5000BD4602B080BDC0469F8601000004014031
:100C6000FC0000208C000020F800002070B5002659
:100C70000C4D0D4C641BA410A64209D1002600F0B7
:100C8000ADF80A4D0A4C641BA410A64205D170BDF4
:100C9000B300EB5898470136EEE7B300EB5898479E
:100CA0000136F2E7F40D0008F40D0008F40D000819
:100CB000F80D000810B5034B0100186800F00CF89F
:100CC00010BDC0460000002003001218934200D15E
:100CD000704719700133F9E7032370B5CD1C9D43AC
:100CE000083506000C2D1ED20C25A9421DD8300057
:100CF00000F062F8254A14682100002919D1244C1B
:100D00002368002B03D1300000F044F82060290054
:100D1000300000F03FF8431C2BD10C23300033602F
:100D200000F04BF803E0002DDFDA0C2333600020E5
:100D300070BD0B685B1B19D40B2B03D90B60CC184F
:100D4000256003E04B688C420DD11360300000F049
:100D500034F8200007220B30231D9043C31AE7D03C
:100D60005A42E250E4E763600C00EFE70C00496888
:100D7000C3E70323C41C9C43A042E1D0211A3000E6
:100D800000F008F8431CDBD1C7E7C0468000002014
:100D900084000020002370B5064C05000800236085
:100DA00000F00CF8431C03D12368002B00D02B600B
:100DB00070BDC0460001002070477047054B02001F
:100DC0001968002901D104491960186882181A604D
:100DD0007047C0468800002008010020F8B5C046D2
:100DE000F8BC08BC9E467047F8B5C046F8BC08BCC5
:040DF0009E46704764
:040DF400E90000080A
:040DF800C10000082E
:100DFC0004000020000000000000000000000000C3
:100E0C0000000000000000000000000000000000D6
:100E1C0000000000000000000000000000000000C6
:100E2C0000000000000000000000000000000000B6
:100E3C0000000000000000000000000000000000A6
:100E4C000000000000000000000000000000000096
:040E5C000000000092
:0400000508000119D5
:00000001FF
